{
  "abi": [
    {
      "inputs": [
        {
          "internalType": "address",
          "name": "projectManager_",
          "type": "address"
        },
        {
          "internalType": "address",
          "name": "fundingAsset_",
          "type": "address"
        },
        {
          "internalType": "uint256",
          "name": "fundingGoal_",
          "type": "uint256"
        },
        {
          "internalType": "uint256",
          "name": "minFundAmount_",
          "type": "uint256"
        }
      ],
      "stateMutability": "nonpayable",
      "type": "constructor"
    },
    {
      "inputs": [],
      "name": "approveBudgetPull",
      "outputs": [],
      "stateMutability": "nonpayable",
      "type": "function"
    },
    {
      "inputs": [
        {
          "internalType": "uint256",
          "name": "amount",
          "type": "uint256"
        }
      ],
      "name": "fundProject",
      "outputs": [],
      "stateMutability": "nonpayable",
      "type": "function"
    },
    {
      "inputs": [],
      "name": "fundedTotal",
      "outputs": [
        {
          "internalType": "uint256",
          "name": "",
          "type": "uint256"
        }
      ],
      "stateMutability": "view",
      "type": "function"
    },
    {
      "inputs": [],
      "name": "fundingAsset",
      "outputs": [
        {
          "internalType": "contract IERC20",
          "name": "",
          "type": "address"
        }
      ],
      "stateMutability": "view",
      "type": "function"
    },
    {
      "inputs": [],
      "name": "fundingGoal",
      "outputs": [
        {
          "internalType": "uint256",
          "name": "",
          "type": "uint256"
        }
      ],
      "stateMutability": "view",
      "type": "function"
    },
    {
      "inputs": [],
      "name": "fundingVoucher",
      "outputs": [
        {
          "internalType": "address",
          "name": "",
          "type": "address"
        }
      ],
      "stateMutability": "view",
      "type": "function"
    },
    {
      "inputs": [
        {
          "internalType": "address",
          "name": "supporter",
          "type": "address"
        }
      ],
      "name": "getSupportBalance",
      "outputs": [
        {
          "internalType": "uint256",
          "name": "funded",
          "type": "uint256"
        }
      ],
      "stateMutability": "view",
      "type": "function"
    },
    {
      "inputs": [],
      "name": "minFundAmount",
      "outputs": [
        {
          "internalType": "uint256",
          "name": "",
          "type": "uint256"
        }
      ],
      "stateMutability": "view",
      "type": "function"
    },
    {
      "inputs": [],
      "name": "productNFT",
      "outputs": [
        {
          "internalType": "address",
          "name": "",
          "type": "address"
        }
      ],
      "stateMutability": "view",
      "type": "function"
    },
    {
      "inputs": [],
      "name": "projectManager",
      "outputs": [
        {
          "internalType": "address",
          "name": "",
          "type": "address"
        }
      ],
      "stateMutability": "view",
      "type": "function"
    },
    {
      "inputs": [],
      "name": "supportDeadline",
      "outputs": [
        {
          "internalType": "uint256",
          "name": "",
          "type": "uint256"
        }
      ],
      "stateMutability": "view",
      "type": "function"
    }
  ],
  "bytecode": {
    "object": "0x61012060405234801561001157600080fd5b5060405161041c38038061041c833981016040819052610030916100a0565b6001600160a01b03848116608052600080546001600160a01b031916918516919091179055600182905560a081905261006c42626ebe006100e3565b610100525050600060c081905260e052506101099050565b80516001600160a01b038116811461009b57600080fd5b919050565b600080600080608085870312156100b657600080fd5b6100bf85610084565b93506100cd60208601610084565b6040860151606090960151949790965092505050565b6000821982111561010457634e487b7160e01b600052601160045260246000fd5b500190565b60805160a05160c05160e051610100516102d061014c60003960006102220152600061018d015260006101db015260006101b40152600060d301526102d06000f3fe608060405234801561001057600080fd5b50600436106100c95760003560e01c80637e0bc77a11610081578063dd2662a21161005b578063dd2662a2146101d6578063ea6106ae146101fd578063eddd11851461021d57600080fd5b80637e0bc77a1461017d5780638fcdeba114610188578063ba4d35b3146101af57600080fd5b8063420a9739116100b2578063420a9739146101635780636c563abe1461016c5780637a3a0e841461017f57600080fd5b8063029eb76e146100ce57806337074acf1461011f575b600080fd5b6100f57f000000000000000000000000000000000000000000000000000000000000000081565b60405173ffffffffffffffffffffffffffffffffffffffff90911681526020015b60405180910390f35b61015561012d366004610244565b73ffffffffffffffffffffffffffffffffffffffff1660009081526003602052604090205490565b604051908152602001610116565b61015560025481565b61017d61017a366004610281565b50565b005b61015560015481565b6100f57f000000000000000000000000000000000000000000000000000000000000000081565b6101557f000000000000000000000000000000000000000000000000000000000000000081565b6100f57f000000000000000000000000000000000000000000000000000000000000000081565b6000546100f59073ffffffffffffffffffffffffffffffffffffffff1681565b6101557f000000000000000000000000000000000000000000000000000000000000000081565b60006020828403121561025657600080fd5b813573ffffffffffffffffffffffffffffffffffffffff8116811461027a57600080fd5b9392505050565b60006020828403121561029357600080fd5b503591905056fea26469706673582212200fa8958133f13c3126f955857bf542f2666db6e22178abc38170a6cb8e26161e64736f6c634300080f0033",
    "linkReferences": {}
  },
  "methodIdentifiers": {
    "approveBudgetPull()": "7e0bc77a",
    "fundProject(uint256)": "6c563abe",
    "fundedTotal()": "420a9739",
    "fundingAsset()": "ea6106ae",
    "fundingGoal()": "7a3a0e84",
    "fundingVoucher()": "dd2662a2",
    "getSupportBalance(address)": "37074acf",
    "minFundAmount()": "ba4d35b3",
    "productNFT()": "8fcdeba1",
    "projectManager()": "029eb76e",
    "supportDeadline()": "eddd1185"
  },
  "id": 19
}