{
  "abi": [
    {
      "anonymous": false,
      "inputs": [
        {
          "indexed": true,
          "internalType": "address",
          "name": "manager",
          "type": "address"
        },
        {
          "indexed": false,
          "internalType": "address",
          "name": "project",
          "type": "address"
        }
      ],
      "name": "ProjectCreated",
      "type": "event"
    },
    {
      "inputs": [
        {
          "internalType": "address",
          "name": "projectManager_",
          "type": "address"
        },
        {
          "internalType": "address",
          "name": "fundingAsset_",
          "type": "address"
        },
        {
          "internalType": "uint256",
          "name": "fundingGoal_",
          "type": "uint256"
        },
        {
          "internalType": "uint256",
          "name": "minFundAmount_",
          "type": "uint256"
        }
      ],
      "name": "createProject",
      "outputs": [],
      "stateMutability": "nonpayable",
      "type": "function"
    },
    {
      "inputs": [
        {
          "internalType": "address",
          "name": "",
          "type": "address"
        }
      ],
      "name": "isProject",
      "outputs": [
        {
          "internalType": "bool",
          "name": "",
          "type": "bool"
        }
      ],
      "stateMutability": "view",
      "type": "function"
    }
  ],
  "bytecode": {
    "object": "0x608060405234801561001057600080fd5b50610683806100206000396000f3fe608060405234801561001057600080fd5b50600436106100365760003560e01c806305c814081461003b578063bf7aaf6f14610072575b600080fd5b61005e6100493660046101cd565b60006020819052908152604090205460ff1681565b604051901515815260200160405180910390f35b6100856100803660046101ef565b610087565b005b6040805173ffffffffffffffffffffffffffffffffffffffff8087166020830152851691810191909152606081018390526080810182905260009060a001604051602081830303815290604052805190602001209050600081868686866040516100f090610197565b73ffffffffffffffffffffffffffffffffffffffff9485168152939092166020840152604083015260608201526080018190604051809103906000f5905080158015610140573d6000803e3d6000fd5b5060405173ffffffffffffffffffffffffffffffffffffffff8216815290915033907f8cb1f5e0b7508307e592a641586f535256dba226b02388100691c6133f65e22e9060200160405180910390a2505050505050565b61041c8061023283390190565b803573ffffffffffffffffffffffffffffffffffffffff811681146101c857600080fd5b919050565b6000602082840312156101df57600080fd5b6101e8826101a4565b9392505050565b6000806000806080858703121561020557600080fd5b61020e856101a4565b935061021c602086016101a4565b9396939550505050604082013591606001359056fe61012060405234801561001157600080fd5b5060405161041c38038061041c833981016040819052610030916100a0565b6001600160a01b03848116608052600080546001600160a01b031916918516919091179055600182905560a081905261006c42626ebe006100e3565b610100525050600060c081905260e052506101099050565b80516001600160a01b038116811461009b57600080fd5b919050565b600080600080608085870312156100b657600080fd5b6100bf85610084565b93506100cd60208601610084565b6040860151606090960151949790965092505050565b6000821982111561010457634e487b7160e01b600052601160045260246000fd5b500190565b60805160a05160c05160e051610100516102d061014c60003960006102220152600061018d015260006101db015260006101b40152600060d301526102d06000f3fe608060405234801561001057600080fd5b50600436106100c95760003560e01c80637e0bc77a11610081578063dd2662a21161005b578063dd2662a2146101d6578063ea6106ae146101fd578063eddd11851461021d57600080fd5b80637e0bc77a1461017d5780638fcdeba114610188578063ba4d35b3146101af57600080fd5b8063420a9739116100b2578063420a9739146101635780636c563abe1461016c5780637a3a0e841461017f57600080fd5b8063029eb76e146100ce57806337074acf1461011f575b600080fd5b6100f57f000000000000000000000000000000000000000000000000000000000000000081565b60405173ffffffffffffffffffffffffffffffffffffffff90911681526020015b60405180910390f35b61015561012d366004610244565b73ffffffffffffffffffffffffffffffffffffffff1660009081526003602052604090205490565b604051908152602001610116565b61015560025481565b61017d61017a366004610281565b50565b005b61015560015481565b6100f57f000000000000000000000000000000000000000000000000000000000000000081565b6101557f000000000000000000000000000000000000000000000000000000000000000081565b6100f57f000000000000000000000000000000000000000000000000000000000000000081565b6000546100f59073ffffffffffffffffffffffffffffffffffffffff1681565b6101557f000000000000000000000000000000000000000000000000000000000000000081565b60006020828403121561025657600080fd5b813573ffffffffffffffffffffffffffffffffffffffff8116811461027a57600080fd5b9392505050565b60006020828403121561029357600080fd5b503591905056fea2646970667358221220de508fa99c316814fc8ce282b47b3e4f63a6592d9c0d8ac12d05683532a13ee364736f6c634300080f0033a2646970667358221220486356e639f55b456cdd20c5498daf4b6c227899437f8fcbcae1a3a66017c0a764736f6c634300080f0033",
    "linkReferences": {}
  },
  "methodIdentifiers": {
    "createProject(address,address,uint256,uint256)": "bf7aaf6f",
    "isProject(address)": "05c81408"
  },
  "id": 20
}