{
  "abi": [
    {
      "inputs": [
        {
          "internalType": "uint8",
          "name": "_maxSupply",
          "type": "uint8"
        }
      ],
      "stateMutability": "nonpayable",
      "type": "constructor"
    },
    {
      "anonymous": false,
      "inputs": [
        {
          "indexed": true,
          "internalType": "address",
          "name": "owner",
          "type": "address"
        },
        {
          "indexed": true,
          "internalType": "address",
          "name": "approved",
          "type": "address"
        },
        {
          "indexed": true,
          "internalType": "uint256",
          "name": "tokenId",
          "type": "uint256"
        }
      ],
      "name": "Approval",
      "type": "event"
    },
    {
      "anonymous": false,
      "inputs": [
        {
          "indexed": true,
          "internalType": "address",
          "name": "owner",
          "type": "address"
        },
        {
          "indexed": true,
          "internalType": "address",
          "name": "operator",
          "type": "address"
        },
        {
          "indexed": false,
          "internalType": "bool",
          "name": "approved",
          "type": "bool"
        }
      ],
      "name": "ApprovalForAll",
      "type": "event"
    },
    {
      "anonymous": false,
      "inputs": [
        {
          "indexed": true,
          "internalType": "address",
          "name": "previousOwner",
          "type": "address"
        },
        {
          "indexed": true,
          "internalType": "address",
          "name": "newOwner",
          "type": "address"
        }
      ],
      "name": "OwnershipTransferred",
      "type": "event"
    },
    {
      "anonymous": false,
      "inputs": [
        {
          "indexed": true,
          "internalType": "address",
          "name": "from",
          "type": "address"
        },
        {
          "indexed": true,
          "internalType": "address",
          "name": "to",
          "type": "address"
        },
        {
          "indexed": true,
          "internalType": "uint256",
          "name": "tokenId",
          "type": "uint256"
        }
      ],
      "name": "Transfer",
      "type": "event"
    },
    {
      "inputs": [
        {
          "internalType": "address",
          "name": "to",
          "type": "address"
        },
        {
          "internalType": "uint256",
          "name": "tokenId",
          "type": "uint256"
        }
      ],
      "name": "approve",
      "outputs": [],
      "stateMutability": "nonpayable",
      "type": "function"
    },
    {
      "inputs": [
        {
          "internalType": "address",
          "name": "owner",
          "type": "address"
        }
      ],
      "name": "balanceOf",
      "outputs": [
        {
          "internalType": "uint256",
          "name": "",
          "type": "uint256"
        }
      ],
      "stateMutability": "view",
      "type": "function"
    },
    {
      "inputs": [
        {
          "internalType": "uint256",
          "name": "tokenId",
          "type": "uint256"
        }
      ],
      "name": "getApproved",
      "outputs": [
        {
          "internalType": "address",
          "name": "",
          "type": "address"
        }
      ],
      "stateMutability": "view",
      "type": "function"
    },
    {
      "inputs": [
        {
          "internalType": "address",
          "name": "owner",
          "type": "address"
        },
        {
          "internalType": "address",
          "name": "operator",
          "type": "address"
        }
      ],
      "name": "isApprovedForAll",
      "outputs": [
        {
          "internalType": "bool",
          "name": "",
          "type": "bool"
        }
      ],
      "stateMutability": "view",
      "type": "function"
    },
    {
      "inputs": [],
      "name": "name",
      "outputs": [
        {
          "internalType": "string",
          "name": "",
          "type": "string"
        }
      ],
      "stateMutability": "view",
      "type": "function"
    },
    {
      "inputs": [],
      "name": "owner",
      "outputs": [
        {
          "internalType": "address",
          "name": "",
          "type": "address"
        }
      ],
      "stateMutability": "view",
      "type": "function"
    },
    {
      "inputs": [
        {
          "internalType": "uint256",
          "name": "tokenId",
          "type": "uint256"
        }
      ],
      "name": "ownerOf",
      "outputs": [
        {
          "internalType": "address",
          "name": "",
          "type": "address"
        }
      ],
      "stateMutability": "view",
      "type": "function"
    },
    {
      "inputs": [],
      "name": "renounceOwnership",
      "outputs": [],
      "stateMutability": "nonpayable",
      "type": "function"
    },
    {
      "inputs": [
        {
          "internalType": "address",
          "name": "to",
          "type": "address"
        },
        {
          "internalType": "string",
          "name": "uri",
          "type": "string"
        }
      ],
      "name": "safeMint",
      "outputs": [],
      "stateMutability": "nonpayable",
      "type": "function"
    },
    {
      "inputs": [
        {
          "internalType": "address",
          "name": "from",
          "type": "address"
        },
        {
          "internalType": "address",
          "name": "to",
          "type": "address"
        },
        {
          "internalType": "uint256",
          "name": "tokenId",
          "type": "uint256"
        }
      ],
      "name": "safeTransferFrom",
      "outputs": [],
      "stateMutability": "nonpayable",
      "type": "function"
    },
    {
      "inputs": [
        {
          "internalType": "address",
          "name": "from",
          "type": "address"
        },
        {
          "internalType": "address",
          "name": "to",
          "type": "address"
        },
        {
          "internalType": "uint256",
          "name": "tokenId",
          "type": "uint256"
        },
        {
          "internalType": "bytes",
          "name": "data",
          "type": "bytes"
        }
      ],
      "name": "safeTransferFrom",
      "outputs": [],
      "stateMutability": "nonpayable",
      "type": "function"
    },
    {
      "inputs": [
        {
          "internalType": "address",
          "name": "operator",
          "type": "address"
        },
        {
          "internalType": "bool",
          "name": "approved",
          "type": "bool"
        }
      ],
      "name": "setApprovalForAll",
      "outputs": [],
      "stateMutability": "nonpayable",
      "type": "function"
    },
    {
      "inputs": [
        {
          "internalType": "uint256",
          "name": "tokenId",
          "type": "uint256"
        },
        {
          "internalType": "string",
          "name": "newURI",
          "type": "string"
        }
      ],
      "name": "setTokenURI",
      "outputs": [],
      "stateMutability": "nonpayable",
      "type": "function"
    },
    {
      "inputs": [
        {
          "internalType": "bytes4",
          "name": "interfaceId",
          "type": "bytes4"
        }
      ],
      "name": "supportsInterface",
      "outputs": [
        {
          "internalType": "bool",
          "name": "",
          "type": "bool"
        }
      ],
      "stateMutability": "view",
      "type": "function"
    },
    {
      "inputs": [],
      "name": "symbol",
      "outputs": [
        {
          "internalType": "string",
          "name": "",
          "type": "string"
        }
      ],
      "stateMutability": "view",
      "type": "function"
    },
    {
      "inputs": [
        {
          "internalType": "uint256",
          "name": "tokenId",
          "type": "uint256"
        }
      ],
      "name": "tokenURI",
      "outputs": [
        {
          "internalType": "string",
          "name": "",
          "type": "string"
        }
      ],
      "stateMutability": "view",
      "type": "function"
    },
    {
      "inputs": [
        {
          "internalType": "address",
          "name": "from",
          "type": "address"
        },
        {
          "internalType": "address",
          "name": "to",
          "type": "address"
        },
        {
          "internalType": "uint256",
          "name": "tokenId",
          "type": "uint256"
        }
      ],
      "name": "transferFrom",
      "outputs": [],
      "stateMutability": "nonpayable",
      "type": "function"
    },
    {
      "inputs": [
        {
          "internalType": "address",
          "name": "newOwner",
          "type": "address"
        }
      ],
      "name": "transferOwnership",
      "outputs": [],
      "stateMutability": "nonpayable",
      "type": "function"
    }
  ],
  "bytecode": {
    "object": "0x60806040523480156200001157600080fd5b50604051620024ce380380620024ce833981016040819052620000349162000127565b6040518060400160405280600f81526020016e1499585b08115cdd185d1948139195608a1b81525060405180604001604052806005815260200164149153919560da1b81525081600090816200008b9190620001f8565b5060016200009a8282620001f8565b505050620000b7620000b1620000d160201b60201c565b620000d5565b6009805460ff191660ff92909216919091179055620002c4565b3390565b600780546001600160a01b038381166001600160a01b0319831681179093556040519116919082907f8be0079c531659141344cd1fd0a4f28419497f9722a3daafe3b4186f6b6457e090600090a35050565b6000602082840312156200013a57600080fd5b815160ff811681146200014c57600080fd5b9392505050565b634e487b7160e01b600052604160045260246000fd5b600181811c908216806200017e57607f821691505b6020821081036200019f57634e487b7160e01b600052602260045260246000fd5b50919050565b601f821115620001f357600081815260208120601f850160051c81016020861015620001ce5750805b601f850160051c820191505b81811015620001ef57828155600101620001da565b5050505b505050565b81516001600160401b0381111562000214576200021462000153565b6200022c8162000225845462000169565b84620001a5565b602080601f8311600181146200026457600084156200024b5750858301515b600019600386901b1c1916600185901b178555620001ef565b600085815260208120601f198616915b82811015620002955788860151825594840194600190910190840162000274565b5085821015620002b45787850151600019600388901b60f8161c191681555b5050505050600190811b01905550565b6121fa80620002d46000396000f3fe608060405234801561001057600080fd5b50600436106101365760003560e01c8063715018a6116100b2578063b88d4fde11610081578063d204c45e11610066578063d204c45e14610299578063e985e9c5146102ac578063f2fde38b146102f557600080fd5b8063b88d4fde14610273578063c87b56dd1461028657600080fd5b8063715018a6146102325780638da5cb5b1461023a57806395d89b4114610258578063a22cb4651461026057600080fd5b8063162094c41161010957806342842e0e116100ee57806342842e0e146101eb5780636352211e146101fe57806370a082311461021157600080fd5b8063162094c4146101c557806323b872dd146101d857600080fd5b806301ffc9a71461013b57806306fdde0314610163578063081812fc14610178578063095ea7b3146101b0575b600080fd5b61014e610149366004611aa2565b610308565b60405190151581526020015b60405180910390f35b61016b610319565b60405161015a9190611b35565b61018b610186366004611b48565b6103ab565b60405173ffffffffffffffffffffffffffffffffffffffff909116815260200161015a565b6101c36101be366004611b8a565b6103df565b005b6101c36101d3366004611c97565b610570565b6101c36101e6366004611cde565b61062c565b6101c36101f9366004611cde565b6106cd565b61018b61020c366004611b48565b6106e8565b61022461021f366004611d1a565b610774565b60405190815260200161015a565b6101c3610842565b60075473ffffffffffffffffffffffffffffffffffffffff1661018b565b61016b610856565b6101c361026e366004611d35565b610865565b6101c3610281366004611d71565b610874565b61016b610294366004611b48565b61091c565b6101c36102a7366004611ded565b610927565b61014e6102ba366004611e25565b73ffffffffffffffffffffffffffffffffffffffff918216600090815260056020908152604080832093909416825291909152205460ff1690565b6101c3610303366004611d1a565b6109d4565b600061031382610a8b565b92915050565b60606000805461032890611e58565b80601f016020809104026020016040519081016040528092919081815260200182805461035490611e58565b80156103a15780601f10610376576101008083540402835291602001916103a1565b820191906000526020600020905b81548152906001019060200180831161038457829003601f168201915b5050505050905090565b60006103b682610b6e565b5060009081526004602052604090205473ffffffffffffffffffffffffffffffffffffffff1690565b60006103ea826106e8565b90508073ffffffffffffffffffffffffffffffffffffffff168373ffffffffffffffffffffffffffffffffffffffff16036104ac576040517f08c379a000000000000000000000000000000000000000000000000000000000815260206004820152602160248201527f4552433732313a20617070726f76616c20746f2063757272656e74206f776e6560448201527f720000000000000000000000000000000000000000000000000000000000000060648201526084015b60405180910390fd5b3373ffffffffffffffffffffffffffffffffffffffff821614806104d557506104d581336102ba565b610561576040517f08c379a000000000000000000000000000000000000000000000000000000000815260206004820152603e60248201527f4552433732313a20617070726f76652063616c6c6572206973206e6f7420746f60448201527f6b656e206f776e6572206e6f7220617070726f76656420666f7220616c6c000060648201526084016104a3565b61056b8383610bf9565b505050565b600061057b836106e8565b90503373ffffffffffffffffffffffffffffffffffffffff821614610622576040517f08c379a000000000000000000000000000000000000000000000000000000000815260206004820152602f60248201527f43616c6c6572206973206e6f7420746865206f776e6572206f7220616e20617060448201527f70726f766564206f70657261746f72000000000000000000000000000000000060648201526084016104a3565b61056b8383610c99565b6106363382610d62565b6106c2576040517f08c379a000000000000000000000000000000000000000000000000000000000815260206004820152602e60248201527f4552433732313a2063616c6c6572206973206e6f7420746f6b656e206f776e6560448201527f72206e6f7220617070726f76656400000000000000000000000000000000000060648201526084016104a3565b61056b838383610e22565b61056b83838360405180602001604052806000815250610874565b60008181526002602052604081205473ffffffffffffffffffffffffffffffffffffffff1680610313576040517f08c379a000000000000000000000000000000000000000000000000000000000815260206004820152601860248201527f4552433732313a20696e76616c696420746f6b656e204944000000000000000060448201526064016104a3565b600073ffffffffffffffffffffffffffffffffffffffff8216610819576040517f08c379a000000000000000000000000000000000000000000000000000000000815260206004820152602960248201527f4552433732313a2061646472657373207a65726f206973206e6f74206120766160448201527f6c6964206f776e6572000000000000000000000000000000000000000000000060648201526084016104a3565b5073ffffffffffffffffffffffffffffffffffffffff1660009081526003602052604090205490565b61084a611089565b610854600061110a565b565b60606001805461032890611e58565b610870338383611181565b5050565b61087e3383610d62565b61090a576040517f08c379a000000000000000000000000000000000000000000000000000000000815260206004820152602e60248201527f4552433732313a2063616c6c6572206973206e6f7420746f6b656e206f776e6560448201527f72206e6f7220617070726f76656400000000000000000000000000000000000060648201526084016104a3565b610916848484846112ae565b50505050565b606061031382611351565b61092f611089565b60095460ff1661093e60085490565b106109a5576040517f08c379a000000000000000000000000000000000000000000000000000000000815260206004820152601f60248201527f4e4654206d617820737570706c7920686173206265656e20726561636865640060448201526064016104a3565b60006109b060085490565b90506109c0600880546001019055565b6109ca8382611459565b61056b8183610c99565b6109dc611089565b73ffffffffffffffffffffffffffffffffffffffff8116610a7f576040517f08c379a000000000000000000000000000000000000000000000000000000000815260206004820152602660248201527f4f776e61626c653a206e6577206f776e657220697320746865207a65726f206160448201527f646472657373000000000000000000000000000000000000000000000000000060648201526084016104a3565b610a888161110a565b50565b60007fffffffff0000000000000000000000000000000000000000000000000000000082167f80ac58cd000000000000000000000000000000000000000000000000000000001480610b1e57507fffffffff0000000000000000000000000000000000000000000000000000000082167f5b5e139f00000000000000000000000000000000000000000000000000000000145b8061031357507f01ffc9a7000000000000000000000000000000000000000000000000000000007fffffffff00000000000000000000000000000000000000000000000000000000831614610313565b60008181526002602052604090205473ffffffffffffffffffffffffffffffffffffffff16610a88576040517f08c379a000000000000000000000000000000000000000000000000000000000815260206004820152601860248201527f4552433732313a20696e76616c696420746f6b656e204944000000000000000060448201526064016104a3565b600081815260046020526040902080547fffffffffffffffffffffffff00000000000000000000000000000000000000001673ffffffffffffffffffffffffffffffffffffffff84169081179091558190610c53826106e8565b73ffffffffffffffffffffffffffffffffffffffff167f8c5be1e5ebec7d5bd14f71427d1e84f3dd0314c0f7b2291e5b200ac8c7c3b92560405160405180910390a45050565b60008281526002602052604090205473ffffffffffffffffffffffffffffffffffffffff16610d4a576040517f08c379a000000000000000000000000000000000000000000000000000000000815260206004820152602e60248201527f45524337323155524953746f726167653a2055524920736574206f66206e6f6e60448201527f6578697374656e7420746f6b656e00000000000000000000000000000000000060648201526084016104a3565b600082815260066020526040902061056b8282611ef9565b600080610d6e836106e8565b90508073ffffffffffffffffffffffffffffffffffffffff168473ffffffffffffffffffffffffffffffffffffffff161480610ddc575073ffffffffffffffffffffffffffffffffffffffff80821660009081526005602090815260408083209388168352929052205460ff165b80610e1a57508373ffffffffffffffffffffffffffffffffffffffff16610e02846103ab565b73ffffffffffffffffffffffffffffffffffffffff16145b949350505050565b8273ffffffffffffffffffffffffffffffffffffffff16610e42826106e8565b73ffffffffffffffffffffffffffffffffffffffff1614610ee5576040517f08c379a000000000000000000000000000000000000000000000000000000000815260206004820152602560248201527f4552433732313a207472616e736665722066726f6d20696e636f72726563742060448201527f6f776e657200000000000000000000000000000000000000000000000000000060648201526084016104a3565b73ffffffffffffffffffffffffffffffffffffffff8216610f87576040517f08c379a0000000000000000000000000000000000000000000000000000000008152602060048201526024808201527f4552433732313a207472616e7366657220746f20746865207a65726f2061646460448201527f726573730000000000000000000000000000000000000000000000000000000060648201526084016104a3565b610f92600082610bf9565b73ffffffffffffffffffffffffffffffffffffffff83166000908152600360205260408120805460019290610fc8908490612042565b909155505073ffffffffffffffffffffffffffffffffffffffff82166000908152600360205260408120805460019290611003908490612059565b909155505060008181526002602052604080822080547fffffffffffffffffffffffff00000000000000000000000000000000000000001673ffffffffffffffffffffffffffffffffffffffff86811691821790925591518493918716917fddf252ad1be2c89b69c2b068fc378daa952ba7f163c4a11628f55a4df523b3ef91a4505050565b60075473ffffffffffffffffffffffffffffffffffffffff163314610854576040517f08c379a000000000000000000000000000000000000000000000000000000000815260206004820181905260248201527f4f776e61626c653a2063616c6c6572206973206e6f7420746865206f776e657260448201526064016104a3565b6007805473ffffffffffffffffffffffffffffffffffffffff8381167fffffffffffffffffffffffff0000000000000000000000000000000000000000831681179093556040519116919082907f8be0079c531659141344cd1fd0a4f28419497f9722a3daafe3b4186f6b6457e090600090a35050565b8173ffffffffffffffffffffffffffffffffffffffff168373ffffffffffffffffffffffffffffffffffffffff1603611216576040517f08c379a000000000000000000000000000000000000000000000000000000000815260206004820152601960248201527f4552433732313a20617070726f766520746f2063616c6c65720000000000000060448201526064016104a3565b73ffffffffffffffffffffffffffffffffffffffff83811660008181526005602090815260408083209487168084529482529182902080547fffffffffffffffffffffffffffffffffffffffffffffffffffffffffffffff001686151590811790915591519182527f17307eab39ab6107e8899845ad3d59bd9653f200f220920489ca2b5937696c31910160405180910390a3505050565b6112b9848484610e22565b6112c584848484611473565b610916576040517f08c379a000000000000000000000000000000000000000000000000000000000815260206004820152603260248201527f4552433732313a207472616e7366657220746f206e6f6e20455243373231526560448201527f63656976657220696d706c656d656e746572000000000000000000000000000060648201526084016104a3565b606061135c82610b6e565b6000828152600660205260408120805461137590611e58565b80601f01602080910402602001604051908101604052809291908181526020018280546113a190611e58565b80156113ee5780601f106113c3576101008083540402835291602001916113ee565b820191906000526020600020905b8154815290600101906020018083116113d157829003601f168201915b50505050509050600061140c60408051602081019091526000815290565b9050805160000361141e575092915050565b815115611450578082604051602001611438929190612071565b60405160208183030381529060405292505050919050565b610e1a84611666565b6108708282604051806020016040528060008152506116da565b600073ffffffffffffffffffffffffffffffffffffffff84163b1561165b576040517f150b7a0200000000000000000000000000000000000000000000000000000000815273ffffffffffffffffffffffffffffffffffffffff85169063150b7a02906114ea9033908990889088906004016120a0565b6020604051808303816000875af1925050508015611543575060408051601f3d9081017fffffffffffffffffffffffffffffffffffffffffffffffffffffffffffffffe0168201909252611540918101906120e9565b60015b611610573d808015611571576040519150601f19603f3d011682016040523d82523d6000602084013e611576565b606091505b508051600003611608576040517f08c379a000000000000000000000000000000000000000000000000000000000815260206004820152603260248201527f4552433732313a207472616e7366657220746f206e6f6e20455243373231526560448201527f63656976657220696d706c656d656e746572000000000000000000000000000060648201526084016104a3565b805181602001fd5b7fffffffff00000000000000000000000000000000000000000000000000000000167f150b7a0200000000000000000000000000000000000000000000000000000000149050610e1a565b506001949350505050565b606061167182610b6e565b600061168860408051602081019091526000815290565b905060008151116116a857604051806020016040528060008152506116d3565b806116b28461177d565b6040516020016116c3929190612071565b6040516020818303038152906040525b9392505050565b6116e483836118b2565b6116f16000848484611473565b61056b576040517f08c379a000000000000000000000000000000000000000000000000000000000815260206004820152603260248201527f4552433732313a207472616e7366657220746f206e6f6e20455243373231526560448201527f63656976657220696d706c656d656e746572000000000000000000000000000060648201526084016104a3565b6060816000036117c057505060408051808201909152600181527f3000000000000000000000000000000000000000000000000000000000000000602082015290565b8160005b81156117ea57806117d481612106565b91506117e39050600a8361216d565b91506117c4565b60008167ffffffffffffffff81111561180557611805611bb4565b6040519080825280601f01601f19166020018201604052801561182f576020820181803683370190505b5090505b8415610e1a57611844600183612042565b9150611851600a86612181565b61185c906030612059565b60f81b81838151811061187157611871612195565b60200101907effffffffffffffffffffffffffffffffffffffffffffffffffffffffffffff1916908160001a9053506118ab600a8661216d565b9450611833565b73ffffffffffffffffffffffffffffffffffffffff821661192f576040517f08c379a000000000000000000000000000000000000000000000000000000000815260206004820181905260248201527f4552433732313a206d696e7420746f20746865207a65726f206164647265737360448201526064016104a3565b60008181526002602052604090205473ffffffffffffffffffffffffffffffffffffffff16156119bb576040517f08c379a000000000000000000000000000000000000000000000000000000000815260206004820152601c60248201527f4552433732313a20746f6b656e20616c7265616479206d696e7465640000000060448201526064016104a3565b73ffffffffffffffffffffffffffffffffffffffff821660009081526003602052604081208054600192906119f1908490612059565b909155505060008181526002602052604080822080547fffffffffffffffffffffffff00000000000000000000000000000000000000001673ffffffffffffffffffffffffffffffffffffffff861690811790915590518392907fddf252ad1be2c89b69c2b068fc378daa952ba7f163c4a11628f55a4df523b3ef908290a45050565b7fffffffff0000000000000000000000000000000000000000000000000000000081168114610a8857600080fd5b600060208284031215611ab457600080fd5b81356116d381611a74565b60005b83811015611ada578181015183820152602001611ac2565b838111156109165750506000910152565b60008151808452611b03816020860160208601611abf565b601f017fffffffffffffffffffffffffffffffffffffffffffffffffffffffffffffffe0169290920160200192915050565b6020815260006116d36020830184611aeb565b600060208284031215611b5a57600080fd5b5035919050565b803573ffffffffffffffffffffffffffffffffffffffff81168114611b8557600080fd5b919050565b60008060408385031215611b9d57600080fd5b611ba683611b61565b946020939093013593505050565b7f4e487b7100000000000000000000000000000000000000000000000000000000600052604160045260246000fd5b600067ffffffffffffffff80841115611bfe57611bfe611bb4565b604051601f85017fffffffffffffffffffffffffffffffffffffffffffffffffffffffffffffffe0908116603f01168101908282118183101715611c4457611c44611bb4565b81604052809350858152868686011115611c5d57600080fd5b858560208301376000602087830101525050509392505050565b600082601f830112611c8857600080fd5b6116d383833560208501611be3565b60008060408385031215611caa57600080fd5b82359150602083013567ffffffffffffffff811115611cc857600080fd5b611cd485828601611c77565b9150509250929050565b600080600060608486031215611cf357600080fd5b611cfc84611b61565b9250611d0a60208501611b61565b9150604084013590509250925092565b600060208284031215611d2c57600080fd5b6116d382611b61565b60008060408385031215611d4857600080fd5b611d5183611b61565b915060208301358015158114611d6657600080fd5b809150509250929050565b60008060008060808587031215611d8757600080fd5b611d9085611b61565b9350611d9e60208601611b61565b925060408501359150606085013567ffffffffffffffff811115611dc157600080fd5b8501601f81018713611dd257600080fd5b611de187823560208401611be3565b91505092959194509250565b60008060408385031215611e0057600080fd5b611e0983611b61565b9150602083013567ffffffffffffffff811115611cc857600080fd5b60008060408385031215611e3857600080fd5b611e4183611b61565b9150611e4f60208401611b61565b90509250929050565b600181811c90821680611e6c57607f821691505b602082108103611ea5577f4e487b7100000000000000000000000000000000000000000000000000000000600052602260045260246000fd5b50919050565b601f82111561056b57600081815260208120601f850160051c81016020861015611ed25750805b601f850160051c820191505b81811015611ef157828155600101611ede565b505050505050565b815167ffffffffffffffff811115611f1357611f13611bb4565b611f2781611f218454611e58565b84611eab565b602080601f831160018114611f7a5760008415611f445750858301515b7fffffffffffffffffffffffffffffffffffffffffffffffffffffffffffffffff600386901b1c1916600185901b178555611ef1565b6000858152602081207fffffffffffffffffffffffffffffffffffffffffffffffffffffffffffffffe08616915b82811015611fc757888601518255948401946001909101908401611fa8565b508582101561200357878501517fffffffffffffffffffffffffffffffffffffffffffffffffffffffffffffffff600388901b60f8161c191681555b5050505050600190811b01905550565b7f4e487b7100000000000000000000000000000000000000000000000000000000600052601160045260246000fd5b60008282101561205457612054612013565b500390565b6000821982111561206c5761206c612013565b500190565b60008351612083818460208801611abf565b835190830190612097818360208801611abf565b01949350505050565b600073ffffffffffffffffffffffffffffffffffffffff8087168352808616602084015250836040830152608060608301526120df6080830184611aeb565b9695505050505050565b6000602082840312156120fb57600080fd5b81516116d381611a74565b60007fffffffffffffffffffffffffffffffffffffffffffffffffffffffffffffffff820361213757612137612013565b5060010190565b7f4e487b7100000000000000000000000000000000000000000000000000000000600052601260045260246000fd5b60008261217c5761217c61213e565b500490565b6000826121905761219061213e565b500690565b7f4e487b7100000000000000000000000000000000000000000000000000000000600052603260045260246000fdfea264697066735822122041ec60c3ea853e927282e1e84c96c18d23d8cb79f0952714eb5b8fc30eddf66764736f6c634300080f0033",
    "linkReferences": {}
  },
  "methodIdentifiers": {
    "approve(address,uint256)": "095ea7b3",
    "balanceOf(address)": "70a08231",
    "getApproved(uint256)": "081812fc",
    "isApprovedForAll(address,address)": "e985e9c5",
    "name()": "06fdde03",
    "owner()": "8da5cb5b",
    "ownerOf(uint256)": "6352211e",
    "renounceOwnership()": "715018a6",
    "safeMint(address,string)": "d204c45e",
    "safeTransferFrom(address,address,uint256)": "42842e0e",
    "safeTransferFrom(address,address,uint256,bytes)": "b88d4fde",
    "setApprovalForAll(address,bool)": "a22cb465",
    "setTokenURI(uint256,string)": "162094c4",
    "supportsInterface(bytes4)": "01ffc9a7",
    "symbol()": "95d89b41",
    "tokenURI(uint256)": "c87b56dd",
    "transferFrom(address,address,uint256)": "23b872dd",
    "transferOwnership(address)": "f2fde38b"
  },
  "id": 26
}